:020000040800F2
:10000000880800202D02000847090008F1080008B0
:1000100043090008B1050008FF0D000800000000BA
:10002000000000000000000000000000010B0008BC
:10003000B505000800000000D5090008510C0008B3
:10004000470200084702000847020008470200086C
:100050004702000847020008B50600081B07000811
:100060001D0700081F0700082107000847020008B5
:10007000470200084702000847020008470200083C
:10008000470200084702000847020008470200082C
:10009000470200084702000847020008230700083B
:1000A000470200084702000847020008470200080C
:1000B00047020008470200084702000847020008FC
:1000C00047020008470200084702000847020008EC
:1000D00047020008BD0C000847020008470200085C
:1000E00019070008470200084702000847020008F5
:1000F00047020008470200084702000847020008BC
:1001000047020008470200084702000847020008AB
:10011000470200084702000847020008470200089B
:10012000470200084702000847020008470200088B
:10013000470200084702000847020008470200087B
:10014000470200084702000847020008470200086B
:10015000470200084702000847020008470200085B
:10016000470200084702000847020008470200084B
:10017000470200084702000847020008470200083B
:10018000470200084702000800F002F800F03FF8BC
:100190000AA090E8000C82448344AAF10107DA45E2
:1001A00001D100F034F8AFF2090EBAE80F0013F0F5
:1001B000010F18BFFB1A43F001031847E40D0000BC
:1001C000040E0000103A24BF78C878C1FAD852074C
:1001D00024BF30C830C144BF04680C6070470000C1
:1001E0000023002400250026103A28BF78C1FBD840
:1001F000520728BF30C148BF0B607047642900F028
:100200007780002070471FB51FBD10B510BD00F0EE
:1002100081F91146FFF7F7FF00F060FE00F09FF94B
:1002200003B4FFF7F2FF03BC00F042FE0948804729
:1002300009480047FEE7FEE7FEE7FEE7FEE7FEE7C8
:10024000FEE7FEE7FEE7FEE704480549054A064BE0
:1002500070470000610C0008890100088802002036
:1002600088080020880400208804002070470000CF
:100270000FB4044910B503AA029800F0F5F810BCB9
:100280005DF814FB1C0000202DE9F0410E460446E9
:10029000002020622046E168884730B3252805D039
:1002A000D4E901219047206A401CF2E7E16820462A
:1002B00000278847050018D0A5F14100192802D869
:1002C00020354FF400673246294620462760FFF765
:1002D00095FF40B1012804D0F61D26F00706083628
:1002E000D8E7361DD6E72846DAE7206ABDE8F08170
:1002F0002DE9F0410646002410687529314616A5FF
:1003000010D0AFF30080002802DA404213A507E0C6
:1003100031688A0701D512A502E0490704D511A565
:10032000012401E0AFF3008000210A2206F1240736
:1003300009E0B0FBF2FCB0FBF2F302FB1C00303032
:1003400078541846491C0028F3D123462A463046E3
:10035000BDE8F04100F02EB8000000002D000000C4
:100360002B000000200000004FF000020429C0F024
:10037000128010F0030C00F08B80CCF1040CBCF167
:10038000020F18BF00F8012BA8BF20F8022BA1EB29
:100390000C0100F07DB85FEAC17C24BF00F8012B9E
:1003A00000F8012B48BF00F8012B704770477047D9
:1003B000704770472DE9F0470D469946924604462E
:1003C00000F124080168880604D5E06921F01001D5
:1003D000216000E00120A84201DD471B00E000276A
:1003E000A1697A1902EB0900081AA0612078C006F9
:1003F00002D42046AFF30080002608E0D4E90121B2
:100400001AF806009047206A401C761C20624E4570
:10041000F4DB2078C0060AD52046AFF3008006E062
:10042000D4E9012130209047206A401C2062381E08
:10043000A7F10107F4DC07E0D4E9012118F8050071
:100440009047206A401C2062281EA5F10105F3DCBC
:100450002046AFF300802078000602D50220BDE8D8
:10046000F0870120FBE70000074B70B50D467B4489
:1004700000F039F80446284600F048F810B14FF073
:10048000FF3070BD204670BD470A00004FF00002EB
:1004900000B5134694469646203922BFA0E80C507A
:1004A000A0E80C50B1F12001BFF4F7AF090728BF55
:1004B000A0E80C5048BF0CC05DF804EB890028BFD1
:1004C00040F8042B08BF704748BF20F8022B11F0FA
:1004D000804F18BF00F8012B7047000001694A1CCB
:1004E00002610878704700B58FB0CDE90131002175
:1004F000059105497944CDE9031011466846FFF797
:10050000C3FE0FB000BD0000E5FFFFFF007B00F061
:1005100080007047754600F02BF8AE46050069462E
:10052000534620F00700854618B020B5FFF78CFE33
:10053000BDE820404FF000064FF000074FF00008E4
:100540004FF0000B21F00701AC46ACE8C009ACE865
:10055000C009ACE8C009ACE8C0098D46704710B5C9
:100560000446AFF300802046BDE81040FFF758BEB8
:1005700000487047280200201CB50121202000F00F
:100580002BFA4FF48070009001208DF804000020B9
:100590008DF8060002208DF807008DF805006946E9
:1005A000024800F035F900201CBD00000014024094
:1005B00000BFFEE77047000010B588B00446B4F5F0
:1005C000165F09D0B4F5E13F06D028A0FFF750FE32
:1005D0004FF0FF3008B010BD0121022000F0FCF9FF
:1005E0000121102000F008FA072206212F4800F010
:1005F00057F9072211462D4800F052F9C020069005
:1006000002208DF81C0000208DF81E0001208DF8BE
:100610001F0002208DF81D0006A9244800F0F8F8FC
:1006200002940020ADF814000C20ADF81200002058
:10063000ADF81000ADF80E00ADF80C0002A91C4892
:1006400000F068FB01211A4800F04AFB25208DF8D4
:10065000040001208DF807008DF8050007208DF8B3
:10066000060001A800F070F90020B3E7424F554E94
:10067000445241544520534554204552524F522E26
:10068000204465627567557361727431496E69748F
:10069000206661696C656421203C3D3D3D3E205BE8
:1006A0006661756C745D0D0A000000000004024074
:1006B0000010014010B5012000F03AF8012825D1C2
:1006C00013480078401C12490870087800EBD0717C
:1006D0004910A0EB410151B9012251020D4800F02F
:1006E00025F9012291020B4800F020F90BE00022CD
:1006F0004FF40071074800F019F900224FF48061AF
:10070000044800F013F9012000F00CF810BD0000BF
:100710000000002000140240704770477047704787
:10072000704770470149086070470000143C014061
:1007300001460020034A12680A400AB1012000E085
:1007400000207047143C014070B504460D462CB99A
:1007500014A0FFF78DFD4FF0FF3070BDB4F802120A
:10076000481CB4F80012C21700EBD2525212A0EB90
:100770004222914205D11AA0FFF77AFD6FF00100E5
:10078000EBE7B4F800022554B4F80212481CC11774
:1007900000EBD1514912A0EB4121A4F80212002034
:1007A000DBE70000506F696E7465722070617261E2
:1007B0006D65746572206973204E554C4C2E204532
:1007C0006E5175657565206661696C656421203CB4
:1007D0003D3D3D3E205B6661756C745D0D0A000019
:1007E00051756575652069732066756C6C2E2045A2
:1007F0006E5175657565206661696C656421203C84
:100800003D3D3D3E205B6661756C745D0D0A0000E8
:10081000F0B50A4600210023002400BF3DE0012579
:1008200005FA01F3156805EA03049C4234D1056812
:100830004F000326BE40B543056015794E00B54014
:100840000668354305601579012D02D01579022D12
:1008500016D185684F000326BE40B54385605579A3
:100860004E00B540866835438560456801268E4058
:10087000B5434560456896798E40B6B235434560CC
:10088000C5684F000326BE40B543C560D5794E000C
:10089000B540C6683543C560491C1029BFD3F0BDBB
:1008A000F0B5002300244D07ED0E02FA05F3CE103B
:1008B00000F1200555F826504E07F70E0F26BE40D2
:1008C000B543CF1000F1200646F82750CE1000F1B6
:1008D000200555F8265045EA0304CE1000F1200506
:1008E00045F82640F0BD0AB1018300E0418370471E
:1008F00000BFFEE71CB504460121202000F06CF883
:10090000009401208DF8040000208DF806000120DD
:100910008DF8070002208DF8050069460248FFF7B0
:1009200077FF00201CBD00000014024070B5044693
:100930000D461646324629462046FFF7D4FF0020D2
:1009400070BD00BFFEE7704770B5002100230F2285
:10095000C4781CB3174C246804F4E064C4F5E06464
:10096000C4F30721C1F10404E3B20A4144789C4076
:10097000E1B28478144021430C07210E0E4C057817
:100980006155047804F01F050124AC4005786D1111
:10099000AD0005F1E025C5F8004109E0047804F058
:1009A0001F050124AC40054D0678761145F8264018
:1009B00070BD00000CED00E000E400E080E100E02C
:1009C00002490143024A1160704700000000FA0525
:1009D0000CED00E07047000029B1064A126802439E
:1009E000044B1A6004E0034A12688243014B1A6008
:1009F000704700003038024029B1064A12680243AD
:100A0000044B1A6004E0034A12688243014B1A60E7
:100A10007047000044380240F0B500210022002455
:100A2000022500260223324F3F6807F00C0121B156
:100A3000042905D0082937D105E02E4F076036E09C
:100A40002D4F076033E02A4F3F1F3F68C7F38056A2
:100A5000274F3F1F3F6807F03F036EB1264FB7FB9C
:100A6000F3F7DFF88CC0ACF1040CDCF800C0CCF379
:100A7000881C07FB0CF40CE01E4FB7FBF3F7DFF804
:100A800070C0ACF1040CDCF800C0CCF3881C07FB90
:100A90000CF4174F3F1F3F68C7F301477F1C7D00D1
:100AA000B4FBF5F7076002E0124F076000BF00BF1C
:100AB0000F4F3F6807F0F0010909104F7A5C076893
:100AC000D74047600A4F3F6807F4E051890A0B4F4F
:100AD0007A5C4768D7408760054F3F6807F46041FC
:100AE000490B064F7A5C4768D740C760F0BD0000ED
:100AF000083802400024F40000127A0001000020AF
:100B0000704700000CB50020019000903448006848
:100B100040F480303249086000BF3148006800F47A
:100B2000003000900198401C0190009818B901987D
:100B3000B0F5A04FF1D12A48006800F4003010B1A0
:100B40000120009001E0002000900098012846D18B
:100B500023484030006840F080502149403108600F
:100B60002048006840F440401E4908601C48083096
:100B700000681B49083108600846006840F40040DE
:100B800008600846006840F4A05008601648091F35
:100B90000860081F006840F08070091F086000BFEF
:100BA0000F48006800F000700028F9D040F205708E
:100BB0000E4908600A480830006820F00300084920
:100BC000083108600846006840F00200086000BF75
:100BD00003480830006800F00C000828F8D10CBD6C
:100BE0000038024000700040085A4007003C0240B4
:100BF00010B54FF4C060FFF7E3FE4FF4E130FFF7AC
:100C0000DBFC0448006800F0FDF800F005F8002067
:100C100010BD0000180000204FF0E020406920F0D7
:100C20007F404FF0E021486145F2082048610846C6
:100C3000006920F0040008610846006940F00200E5
:100C400008610846006940F0010008610020704713
:100C500002480068401C01490860704720000020DD
:100C600010B51248006840F00100104908600020EB
:100C70000E49083108600D4800680D4908400B49CD
:100C800008600C48091D0860081F006820F48020D7
:100C9000091F0860002005490C310860FFF732FF8A
:100CA0004FF000600449086010BD000000380240A9
:100CB000FFFFF6FE1030002408ED00E010B5202103
:100CC000064800F019F8012806D1044800F08EF813
:100CD000C4B2204600F0BCF810BD00000010014076
:100CE00021B1828942F40052828104E082894DF66A
:100CF000FF731A408281704702460020B1F5007FE1
:100D000000D100BF13880B400BB1012000E0002090
:100D1000704700002DE9FF4705460E460024A14616
:100D200000BFA046B08900B100BF2C8A24F4405413
:100D3000F08804432C82AC8941F20C608443B08873
:100D40003189084371890843044344F02004AC818D
:100D5000AC8A24F44074B0890443AC826846FFF73F
:100D60005BFE2048854202D01F48854202D1DDF853
:100D70000C9001E0DDF80890A88900F4004040B133
:100D800009EBC90000EB091031684900B0FBF1F72D
:100D900007E009EBC90000EB091031688900B0FBDE
:100DA000F1F76420B7FBF0F004012009642101FB96
:100DB0001078A88900F4004040B1322000EBC80050
:100DC000B0FBF1F000F00700044308E0322000EB34
:100DD00008106421B0FBF1F000F00F0004432C81F7
:100DE000BDE8FF87001001400014014001468888DB
:100DF000C0F308007047C1F308028280704700BF4B
:100E0000FEE7000010B504462CB90A48FFF730FA97
:100E10004FF0FF3010BD4FF401712046FFF7A4FAE8
:100E2000B4F80222B4F8001203A0FFF721FA002060
:100E3000F0E700005C0F000866726F6E743A2025C0
:100E400064202020726561723A2025640D0A00003A
:100E500070B50446214605480068FFF775FC054655
:100E600015B103A0FFF704FA284670BD1800002052
:100E700067446562756752784275666620697320BB
:100E800066756C6C2E20557361727452784275666B
:100E90006653746F7265206661696C656421203CDD
:100EA0003D3D3D3E205B6661756C745D0D0A000042
:100EB000014600BF7047000070B504460D4600BFF4
:100EC00040210548FFF718FF0028F9D0A1B20248D9
:100ED000FFF791FF204670BD00100140FFF788FE2C
:100EE0004FF4C060FFF706FDFFF746FB00224FF40A
:100EF00000710D48FFF71AFD00224FF480610A4887
:100F0000FFF714FD0FE00948006809490968401A15
:100F100041F28831884206D30448006804490860D9
:100F200004A0FFF7A5F9EEE700140240200000201E
:100F30001400002048656C6C6F2C2057656C636F43
:100F40006D6520746F2074686520776F726C642003
:100F50006F662053544D3332210D0A00506F696E75
:100F600074657220706172616D6574657220697359
:100F7000204E554C4C2E2055736172745278427538
:100F80006666496E6974206661696C656421203CFF
:100F90003D3D3D3E205B6661756C745D0D0A000051
:100FA000C00F00080000002024000000C401000859
:100FB000E40F00082400002064080000E00100089D
:100FC00001000000000102030401020304060708F7
:100FD00009000000000000002400002000000000C4
:040FE000000000000D
:040000050800018965
:00000001FF
